:020000040808EA
:100000000000080874680808000006000A000501DE
:080010000402E80500000000F5
:04001800985C0808E0
:1000200009480A4908B5884205D0094A824202D0E7
:10003000121A05F073F90748074A0021121A05F051
:1000400078F9064808BD00BF0000002014670808C2
:100050003401002034010020AC090020AC0900204C
:1000600070B503F009FE074B074C1E46E41AA408BE
:100070000025A54204D056F8253098470135F8E709
:1000800070BD00BFDC6608081067080801F068BA98
:1000900008B501F025F8BDE8084003F0AFBD02F057
:1000A0007BB902F081B90078B0FA80F0400970475E
:1000B0000123037070470000014B01221A70704742
:1000C0000C02002003681847012A02D0022A02D03D
:1000D00004E0016002E00B6800B10360002070479B
:1000E0000021072003F063BE38B50446006928B13B
:1000F00085680C2103F02DFF2846F8E7204638BD1F
:1001000008B5044903F046F918B1034801F00CFDA5
:10011000012008BD68610808B4010020436913B1DB
:1001200083690C301847704710B50446024B0360D2
:1001300001F0C2FC204610BDC85C080810B504469A
:10014000FFF7F2FF2046102103F003FF204610BD09
:1001500013B504460021084601F02CFE02A9002335
:10016000204641F8043D01F03DFE019C0CB1012305
:1001700023710021012001F01DFE2CB123682046CF
:100180009B6898470023237102B010BD08B500207A
:1001900002F0A2F828B102F087F880F00100C0B2A6
:1001A00008BD012008BD000010B5214B1A78194682
:1001B00022B9204A92F82820012A15D11E4B01228B
:1001C0001A701E4B53E8002F013243E8002000282C
:1001D000F8D11B4B53E8002F013243E800200028E0
:1001E000F8D100230B7010BD022A1ED101F052FE7F
:1001F000144C2368C01AB0F52F7F18D30E4B012280
:100200001A700E4B53E8002F013243E800210029F9
:10021000F8D10B4B53E8002F013243E800210029AD
:10022000F8D101F037FE206010BD01221A7010BD18
:1002300080020020BC020020A80100200002002053
:10024000FC010020A802002037B505469DF81840A3
:1002500023438DF800303C2302F0C8FB284603B04E
:1002600030BD10B50446006808B102F09DF8204684
:1002700010BD10B58368044613B1032201469847A8
:10028000204610BD37B5134B044603608068C8B1E3
:1002900000256FF000438DE8280002212B462A46F6
:1002A00001F0A8FD2946A06801F0C4FD237903F000
:1002B000FF0513B101F076FDF8E72946A06801F0CB
:1002C00089FDA56004F10C00FFF7D3FF204603B0C1
:1002D00030BD00BFB45C080810B50446FFF7D2FF7C
:1002E00020461C2103F035FE204610BD0368D86867
:1002F00020B183888B4201D08068F9E77047000005
:100300002DE9F041037D05460F4616463BB301211A
:10031000FFF7ECFF50B18389BB4204D186731EE026
:100320008388012BF6D080680028F9D10D49102070
:1003300003F01AFE044688B14FF01008424600212F
:1003400004F0F7FF022363800123A4F80080A38058
:100350002B69A781A360A6732C6100E0287528464D
:10036000BDE8F0818464080810B5044639B101394C
:10037000FFF7FAFF0146204604F0A2FC10BD4FF043
:100380007E5010BD37B5204B1B68D3F8C420B3F89E
:10039000C83013831D4B986840B16FF000420023B2
:1003A0008DE80C0001211A4601F024FD184D2C782F
:1003B00003F014FA8442174C04D003F00FFA01231F
:1003C0002870A361A3690133A36103F0F6F9124910
:1003D000E060002351E8002F41E800300028F9D107
:1003E00021680A440D49226051E8002F41E800309D
:1003F0000028F9D1A1680A44A260094A01211170BC
:10040000084A137003B030BD38020020C801002034
:10041000040200208C02002000020020FC010020C9
:1004200088020020A801002010B5104B104C9A68DB
:10043000104BD96E8A42996EC8BFDA668A42BCBF39
:100440000C498A662268911C0B4A106843F8210007
:100450000021116092685A60084A01231370084A0B
:10046000137003F0B1F9206010BD00BFBC02002082
:1004700008020020380100208C020020F601002034
:1004800088020020F0B51C4CCBB0E06803F0F4F813
:100490000646E06803F0DEF8184C0746254603F0F0
:1004A00093F9A36E164A0493E36E4FF4807103939D
:1004B00055F8043F01900293009733460AA801F0D3
:1004C00093FF64340F490AA804F064FF0A2255F828
:1004D000041F06A802F04BFF06990AA804F05AFF71
:1004E00006A802F0BFFEA542ECD103F005FA0AA966
:1004F00002F069FE4BB0F0BD8C02002038010020F4
:10050000245D08083A5D080810B5064B1A781C46A9
:1005100022B103F0F1F9044902F055FE00232370E3
:1005200010BD00BF760000203D5D080830B5174DB6
:1005300099B004AC0FCD0FC40FCD0FC495E80300E4
:1005400084E8030012490EA801F0D4FF0EA802F0BF
:1005500024F804460EA802F067F805460EA802F03B
:100560004BF818AB03EB840403F0BEFFCDE90201A6
:10057000284603F0B9FFCDE90001064A54F8503C83
:100580004021054801F030FF19B030BDDC5C08089F
:10059000E8020020B05D08084002002000000000D2
:1005A00008B50A2003F02FFC03F08CFF16A3D3E953
:1005B000002303F0EDFF04F025FA4FF0665104F03C
:1005C0007FFB03F091FF0022114B03F02DFE002270
:1005D000104B03F0DDFF04F0EDF903F073FF002290
:1005E0000D4B03F0D5FF00220C4B04F0FBF800226A
:1005F0000B4B03F01BFE04F0DDF90A4B01221861DE
:10060000094B1A7008BD00BF6666666666660A40DA
:100610000000E03F0000594000002240000014406C
:10062000000040408C02002088020020074B1B681D
:10063000D3F8A820B3F8AC101183D3F8A820B3F8EE
:10064000AC305383024B00221A70704738020020EE
:100650000C02002013B50446012101A802F0E1FCC0
:1006600001A81CB102F078FD012401E002F044FD74
:1006700001A802F0E5FC204602B010BD10B5202410
:1006800090B022460021684604F053FE2246002125
:100690000DEB04008DF8054004F04BFE00210DEB3E
:1006A00004008DF8254001F0C3FD1A4B5979009BD9
:1006B000A1B140F22622ADF8082041F2D832ADF8BF
:1006C00006204FF40072ADF80A2041F2700243F4A4
:1006D0000073ADF80C200093002110E04FF461721C
:1006E000ADF8082041F27000ADF80A2041F2100286
:1006F00043F40073ADF80600ADF80C200093684693
:1007000001F096FD04460120FFF7A4FF204610B03B
:1007100010BD00BFBC0200202DE9D04320480023BB
:100720001A461946406801F007FE40F2E73601F02C
:10073000ABFD4FF496740027002001F0C3FB804608
:100740004FF00009002001F0BDFBB0EB080061EBA9
:1007500009018F4208BF864205D301F0A5FD10B9FB
:1007600001F08AFDEEE701F09FFD48B101F09CFD2C
:10077000A0B10C4A0123D3700B4A1370BDE8D0839B
:100780000A4B1B780BB1FFF7FDFD01F083FB084B13
:10079000186001F071FD013CE8D0CDE7BDE8D083E1
:1007A000E8020020BC020020F7010020A801002080
:1007B000A408002008B501F077FD80F00100C0B268
:1007C00008BD0000F8B501F067FD002001F07AFBDC
:1007D00043F69726044600250027002001F072FB0F
:1007E000001B61EB05018F4208BF864205D3FFF76E
:1007F000E1FF10B901F040FDEFE7FFF7DBFF09482B
:10080000002319461A46406801F09EFD064B00225F
:10081000DA70064B01244FF4FA601C7001F0FCFD05
:100820002046F8BDE8020020BC020020F7010020AD
:1008300037B501F031FD01F02DFB43F69725044655
:1008400001F032FD40B101F025FB001BA84203D8A6
:10085000642001F0E1FDF3E70021094B47F230523B
:10086000084601F097FA4FF47A7001F0D5FD054B78
:100870000A221B680121684602F064FE03B030BD05
:10088000C95D08082802002038B502F0B1FF05460E
:1008900002F0BFFF044602F0B5FF231F062B0ED95E
:1008A000E31E082B0DD801382D1A01D50B2C02E0C0
:1008B000072D06DD032C14BF0020012038BD0120C8
:1008C00038BD002038BD000030B585B00D4600228F
:1008D00004A941F8102D01F04DFCA8B9009C0CB101
:1008E000236923B9094A00210A2001F02BFC0023C7
:1008F00001930C23ADF8043004230393029523697C
:1009000001AA01212046984705B030BD851E080880
:1009100030B50E4D89B001AC0FCD0FC495E807007E
:1009200084E8070069460720FFF7CEFF0028A8BF2C
:10093000009808AB03EB800050F81C3C044A1021DF
:10094000044801F051FD09B030BD00BF045D080846
:10095000B85F0808E601002037B5194B00221146A0
:10096000586801F0E1FC08B1FFF7E0FDFFF718FE61
:10097000FFF7CEFF01A90320FFF7A6FFB0B90621BC
:100980004FF08040FFF7F0FC0546BDF8040004F08E
:100990003FF929460446284604F08AF8014604F047
:1009A00087F80146204604F03FFA00E0054804F0CD
:1009B0004DFB054B01229860044B1A7003B030BD0B
:1009C000E8020020000080BFBC020020F7010020E8
:1009D00038B52C4CFFF7C0FFA3782A4D012B84BFFC
:1009E0000023A370E378012B06D901F05DFC10B160
:1009F0000123EB7000E0E87094F82830022B07D94F
:100A0000204B00222049214883F8282004F0DBFCF9
:100A1000A2681C4B1D2AD4BF01220022DA7123696F
:100A20006569FF2B82BF174B00221A6118492846BF
:100A300004F0E4FA20B91749284604F0FDFA08B199
:100A4000154B6361A5690021284604F0D7FA28B93F
:100A50004FF08041284604F0EFFA10B14FF07E537A
:100A6000A361E3690C2B82BF064B0022DA61236A83
:100A70000C3B0C2B82BF034B18221A62074B01223E
:100A80001A7038BDBC020020D65D0808AC020020F8
:100A9000000040C1000040410000A0C0F70100205C
:100AA00038B5046805467CB16368013B63605BB997
:100AB000236820469B689847A368013BA3601BB945
:100AC00023682046DB689847284638BD1FB5FFF7E6
:100AD00023FEFFF741FF01F0E7FB60B1184B002256
:100AE0001B7802A88DF800201649174AFFF7ACFBC7
:100AF00003A8FFF7D5FF154B022299681A701D292C
:100B00004FF000029A701A71D8BF0122DA71104AB0
:100B100010495A614FF07E529A610622DA6115221D
:100B20001A620D48002283F8282004F04CFC2C2384
:100B3000064A0121094801F085F805B05DF804FB7B
:100B4000C4010020D15E0808E65D0808BC02002050
:100B50000000A0C0D65D0808AC020020B40100204F
:100B600030B51C4985B002F015FC00282FD001F0EB
:100B70009BFB60B1184B00221B7802A88DF8002067
:100B80001649174AFFF760FB03A8FFF789FF154DC9
:100B90000024AC602C6002F010FE134BE8601C6176
:100BA0006C6102F00AFE114B64229A661A461860C4
:100BB000DC6642F8044F643342F8044F9A42FBD19A
:100BC0000B4B012018700B4B18700B4B187005B0B5
:100BD00030BD00BF68610808C4010020DA5F080862
:100BE000FE5D08088C020020BC02002038010020B5
:100BF000F601002088020020F70100201FB50F49F0
:100C000002F0C8FBB0B10E4A0E4B12781B780E49A9
:100C10008DF8002002A80D4AFFF716FB03A8FFF786
:100C20003FFF4FF4FA6001F0F7FB0420012103F0CD
:100C3000BEF8012005B05DF804FB00BF686108083C
:100C4000E5010020C4010020DA5F08080F5E0808F3
:100C500030B51C4985B0044602F09CFB0546B8B18E
:100C6000194B002201245C70DA70184B18491B786C
:100C700002A88DF80020174AFFF7E6FA03A8FFF74D
:100C80000FFF42F2107001F0C7FBFFF79BFD16E06B
:100C90001149204602F07EFB90B10B4B01245D70A0
:100CA000DC70FFF739FD094B02A81B780B4A8DF861
:100CB00000500749FFF7C8FA03A8FFF7F1FE2046E6
:100CC00005B030BD68610808BC020020C4010020E6
:100CD000D15E0808275E0808665E0808685E080896
:100CE0001FB5FFF739FEFFF7CFFD10B102F012FD7F
:100CF00001E002F019FD164B9A681C463B2A09DCFC
:100D00001449684602F0F5FA6846FFF7A1FF684605
:100D100002F0A8FAA2680E4B312A03DC0622DA613F
:100D2000152204E05A2A03DD0022DA6118221A6231
:100D30000849684602F0DDFA6846FFF711FF684689
:100D400002F090FA044B01221A7004B010BD00BFEB
:100D5000BC02002068610808760000207FB5304999
:100D6000044602F017FB0646A8B12E4B00252E497B
:100D70002E4883F8285004F026FB2D4B01241C70CC
:100D800001F092FA08B9012047E02A4B2A4A1B7861
:100D90008DF8005018E02949204602F0FBFA05467C
:100DA000D0B1204B01242649204883F8284004F084
:100DB0000AFB1F4B1C7001F077FA0028E3D01D4B93
:100DC000204A1B788DF8006002A81F49FFF73CFA03
:100DD00003A8FFF765FED6E71C49204602F0DAFAC1
:100DE000D8B1104B02221A49104883F8282004F089
:100DF000EAFA0F4B01241C7001F056FA0028C2D009
:100E00000C4B144A1B78104902A88DF80050FFF7CC
:100E10001BFA03A8FFF744FE204604B070BD00BFD4
:100E2000665E0808BC020020D65D0808AC020020FF
:100E3000F7010020C4010020D65E08086861080898
:100E4000F25E0808FD5E0808D15E0808145F080815
:100E5000165F0808245F08082DE9F043CDB004466A
:100E600001F022FA10B1002001F02EFA002001F06A
:100E700029F847F22F58064600274FF000090020B6
:100E800001F020F8801B61EB0701894508BF804510
:100E900005D3FFF77BF910B901F0EEF9EFE7FFF7A3
:100EA00075F90A2205A9206804F054FB00F10C032F
:100EB000DBB2182B4DD845B2284603F0ADFE2A4BC5
:100EC0000124586102F0F0FB284B1C7002F0DEFB9D
:100ED000064602F072FC301A03F0F4FA20A3D3E9BC
:100EE000002303F07FFC224ACDE900010A212148BA
:100EF00001F07AFA01F0D8F948B31F4E2B461F4A89
:100F00004FF4807100250CA801F06EFA33780CAA1A
:100F10001B4908A88DF80050FFF796F909A8FFF7BC
:100F2000BFFD02F04AFC014608A802F003FC089B42
:100F300013490393039A337806A88DF80050FFF7FE
:100F400083F907A8FFF7ACFD08A802F08BF920464B
:100F500000E000204DB0BDE8F08300BFAFF300809B
:100F6000000000000020AC40BC020020F70100207F
:100F7000645F0808A9010020C40100206E5F080812
:100F80004C60080800B50D4BC5B0DB690C4A4FF446
:100F9000807104A801F028FA0A4B00221B780A4944
:100FA0008DF8002002A804AAFFF74EF903A8FFF766
:100FB00077FD012045B05DF804FB00BFBC020020B6
:100FC000825F0808C40100204C60080813B50A229B
:100FD00001A9006804F0BEFA17280AD8074B0124BB
:100FE000D861074B1C7001F05FF920B1FFF7CAFF11
:100FF00002E0002000E0204602B010BDBC0200204C
:10100000F701002010B5C6B00A2203A9006804F059
:10101000A1FA182803461BD8104A01241062104A6E
:101020004FF48071147006A80E4A01F0DDF901F04A
:101030003BF978B10C4B00221B7804A88DF80020F6
:101040000A4906AAFFF700F905A8FFF729FD01E004
:10105000002000E0204646B010BD00BFBC020020CA
:10106000F7010020965F0808C40100204C600808C2
:1010700030B5154D15492A780E2303FB0212144C86
:101080008FB02078009203FB0013124A282104A895
:1010900001F0AAF92B78237001F006F960B10E4B2C
:1010A00000221B7802A88DF800200C4904AAFFF743
:1010B000CBF803A8FFF7F4FC02F0B0FC04A902F09F
:1010C00082F80FB030BD00BFF80100200000002002
:1010D000E4010020AD5F0808C4010020BB5F0808E0
:1010E0002DE9F0479A4C86B023789A4F013B042BA8
:1010F00000F2D280DFE803F08A0336647500964B75
:101100001B780BB1FFF792FA944B1B780BB1FFF7EA
:1011100039F9052002F064FE08B9FFF7F5F9904BA4
:101120005A781D4642B100F0B5FE8E4B1B68C01ABE
:10113000B0F57A7F00F2D48002F046FB2B6A984229
:1011400080F2D18002F040FB854BDB699842C0F20F
:10115000CA8002F039FB844B1B68984200F09C80E7
:10116000052351E0192001F07FFE804B1B68D3F866
:10117000F422B3F8F83213837D4B1B68002BEFD1B8
:10118000774BDB780BB1FFF71DFB0021072002F046
:101190000EFEFFF74BFA02F010FB4FF4616390FB79
:1011A000F3F202FB13001A1A724BB2F5616F1B685F
:1011B000A8BF4FF46162012103A802F0C3F96BE0FC
:1011C000664B1B7803F0FF01002B65D16A4B9868D2
:1011D000002800F08B8000F025FE002800F08680BB
:1011E0005AE0FFF7B9FBFFF71FF9FFF74BF902F0E1
:1011F000EBFA002800F0168102F0E6FA584B1B6A61
:10120000984200F00F810223237045E0544C23796B
:101210002BB15A4B1B78012B01D0FFF729FF00F0AF
:1012200039FE574B1B6803F5EA433033984233D9F4
:101230002369032B16DC01F037F860B1514B002213
:101240001B7803A88DF800204F49504AFEF7FCFF99
:1012500004A8FFF725FC4FF4FA6001F0DDF802F076
:1012600006F919E001F020F860B1464B00221B7826
:1012700003A88DF800204449454AFEF7E5FF04A87D
:10128000FFF70EFC4FF4FA6001F0C6F8002323616B
:1012900001233B70FFF7CCFA3B7843B12C23304A53
:1012A00001213C4800F0CEFC2A4B00221A703A4C37
:1012B00023783BB11C232E4A5021364800F0C2FC53
:1012C00000232370354C2378002B00F0AE80702370
:1012D000334A80212F4800F0B5FC00232370A4E09E
:1012E0000423237028E70323237032E71C4BDB78A9
:1012F0000BB1FFF767FA02F060FA0646FFF796F9BE
:10130000284B1A7D0AB101221A72002205212548B4
:10131000FEF7F6FF01221921FEF7F2FF037D0546D5
:10132000002B59D04FF4616296FBF2F302FB13637A
:10133000D31A9342A8BF13464FF47A78042108FBCE
:1013400003F8FEF7D3FF814670B3C0F80C8043E08A
:10135000F8010020F70100200C020020A801002065
:10136000BC0200203C0200200802002038020020BD
:101370008C02002028020020C8010020E401002087
:1013800084020020C4010020E05F0808CC5F080848
:10139000E65F0808B401002088020020F601002062
:1013A00038010020100200202149102002F0DCFD4D
:1013B0000646002834D04FF0100A5246494603F042
:1013C000B8FF022373800423A6F800A0B3802B6922
:1013D000C6F80C80B3602E612B7D1BB1EB6843F027
:1013E0000103EB60134903A802F044F8039B73B1B7
:1013F0009A88012A0BD19B89052B02D1FFF784F82B
:1014000005E0192B03D100F045FD0B4B1860039844
:101410000223237000283FF43FAF00F0C5FF3BE7F5
:101420002875D9E7FFF75CFCEDE606B0BDE8F0876C
:1014300084640808100200203C0200200000000024
:1014400070B5CCB0044602F0B8F90A22064605A9E8
:10145000206804F07FF8C3B2022B59D840B203F0E1
:10146000DBFB044602F03CF92F4B01229C612F4B21
:1014700020461A7003F038F82D4ACDE900014FF4E8
:1014800080710CA800F0B0FF02F076F938B1FFF7D8
:10149000FBF910B102F03EF901E002F045F902F06B
:1014A000F5F8044602F089F9201A03F00BF81CA3A2
:1014B000D3E9002303F096F91E4ACDE900010A2181
:1014C0001D4800F091FF00F0EFFE18B31B4D002403
:1014D0002B780CAA1A4908A88DF80040FEF7B4FE34
:1014E00009A8FFF7DDFA314608A802F023F9089BA6
:1014F00013490393039A2B7806A88DF80040FEF752
:10150000A3FE07A8FFF7CCFA08A801F0ABFE01E0A4
:10151000002000E001204CB070BD00BFAFF30080A0
:10152000000000000020AC40BC020020F7010020B9
:1015300005600808645F0808A9010020C4010020B4
:101540004C6008080023022200F086BE002304221B
:1015500000F082BE0246014801F020B97127080858
:101560002DE9F04188B002F0C7F94FF4E13102F003
:10157000BDF90021112002F009FC0021052002F034
:1015800005FCB94C0121072002F000FC01210620D6
:1015900002F0FCFB236801211A6FB3F874300420B9
:1015A000538302F0F3FB01211D2002F0EFFB2368BF
:1015B0000121D3F82C23B3F830330C20138302F02D
:1015C000E5FB01210C2002F0F2FB0321192002F0BF
:1015D000DDFB01211B2002F0D9FB23680121D3F898
:1015E000F422B3F8F8321C20538302F0CFFB2368B7
:1015F0000121D3F81023B3F81433072013830026F6
:1016000002F0D5FBFFF712F84FF0FF3301229749A4
:101610000096112001F000FC95499648FFF792FFD3
:1016200095499648FFF78EFF95499648FFF78EFF3C
:1016300095499648FFF78AFF95499648FFF782FF3C
:1016400095499648FFF77EFF95499648FFF77AFF40
:1016500095499648FFF776FF95499648FFF776FF3C
:1016600095499648FFF772FF95499648FFF76EFF38
:1016700095499648FFF76EFF95499648FFF76AFF30
:1016800095499648FFF766FF95499648FFF762FF30
:1016900095499648FFF75EFF95499648FFF75AFF30
:1016A00095499648FFF756FF95499648FFF752FF30
:1016B00095499648FFF74EFF954800F02BFA3146C2
:1016C00001230DF10F02924800F066FA9DF80F1009
:1016D000274601298F4D0BD08D4800F025FA0423B1
:1016E0008D4A31468A4800F0ADFAFFF7EFF904E081
:1016F0002C232A46864800F04FFA002608ACFFF754
:1017000067F944F8106D012332463146204685F8CA
:10171000283000F0A7FB049B142B00F09680324683
:1017200031462046049600F09DFB049B8C2B00F074
:101730008C8095F828300BB9784903E0012B0CBF59
:10174000774978495E4803F03EFEA86901F0C8FF7A
:10175000FFF79AF810B101F0DDFF01E001F0E4FFBE
:10176000686901F0A1FF01F091FF064602F025F83B
:10177000301A02F0A7FE3AA3D3E9002303F032F8AF
:101780003B4ECDE90001684A0A21494800F02CFE91
:101790001C23324650215E4800F0FEF93368DFF822
:1017A000AC811BB1F06801F04DFF01E002F00CF8D4
:1017B000C8F8000070235D4A8021554800F0ECF91C
:1017C000FEF75CFF052002F00BFB68B96B780BB1EC
:1017D000574900E05749204601F08BFD2046FFF7AE
:1017E00037FA204601F03EFD01F0EEFF2B6A494C2E
:1017F000984218DA01F0E8FFE369984213DB4E4A99
:10180000002313604D4A4E491360192000930122B2
:101810004FF0FF3301F000FBE37813B100F044FD1B
:10182000D0B1FFF799F83B68D3F81023B3F814331D
:101830005383444B1A780AB902221A7000210720F8
:1018400002F0B5FA08B0BDE8F0812B69012201333E
:101850002B613D4B1A706CE7FEF75EFFE1E700BFBE
:10186000000000000020AC4038020020B900080849
:101870008C020020166008089402002022600808EC
:10188000400200202D600808700000203460080825
:10189000C40200203C600808D8020020BE6008088E
:1018A000DC02002047600808A00200205160080800
:1018B000A901002058600808E601002063600808BC
:1018C000AC02002072600808010108087F60080867
:1018D000610B080889600808FD0B08089560080876
:1018E000590E08089F60080841140808AC600808F1
:1018F000CD0F0808BA60080805100808C760080876
:101900005D0D0808D1600808510C0808E06008085F
:10191000B4010020BC020020205D0808D65D080844
:10192000F25E0808165F0808645F080838010020A6
:10193000665E08086861080800020020FC010020BB
:10194000A9010808F8010020F70100200802002082
:101950002DE9F041454B00241C60454B01271F70C9
:10196000444B88B008221A7000F0B4FA424B434D41
:10197000186002F0ADF92346224642F6666102F095
:10198000AFF902F0A5F922462346032102F0B0F98F
:101990004FF6FF73DFF81C816B812C60AC80AC715B
:1019A0002C81022000F0F8FB42463549284602F01F
:1019B000CBFA344D2146384600F006FC3946042067
:1019C00000F040FA1026281D32462146286003F018
:1019D000B0FC022342462C492846EB802F75AE808E
:1019E00002F0B2FA02F04CFA284D234601464FF4B9
:1019F0000052284600F084F8254B424625492846E7
:101A00002B6002F0A1FA244B02AA04936E44234DEA
:101A100096E80300224B82E803002B6005F10C03DB
:101A200093E8030086E8030092E8030083E80300DC
:101A30001C4B2C716B61AB69AC6007931A4B1B4A52
:101A4000AB614FF47A712B460194009705F10800C1
:101A5000069400F0B7F93046FEF70BFC42461449F5
:101A6000284602F071FA08B0BDE8F0812802002093
:101A7000C4010020E5010020380200202C020020D3
:101A80006302080810020020E9000808B4010020E1
:101A9000C85C080829010808E1000808C8010020FE
:101AA000B45C0808C9000808C50008085101080806
:101AB0008502080834010020704710B50446102143
:101AC00002F047FA204610BD0368C9B29B68184768
:101AD0000EB400B58CB00DAA52F8041B20238DE87B
:101AE0000600039204930168002304AA1E200593B4
:101AF00000F038FB0CB05DF804EB03B07047000059
:101B000030B5034D416005608260C36030BD00BFE9
:101B1000EC610808406801F029B910B50446006876
:101B200001F070F9204610BD2DE9F04107464068EC
:101B30008AB0019001F05DF91E22002102A8BE6862
:101B400003F0F7FB0025DEB1B0463B681E2E28BF30
:101B50004FF01E08DC6802AA434629463846A047D3
:101B6000044648B92A460A490A48FFF7B1FF01A8C6
:101B7000FFF7D3FF204607E0C8EB06064544E2E73F
:101B800001A8FFF7CAFF01200AB0BDE8F08100BF3D
:101B90006A610808D40300202DE9F3470446406831
:101BA0000E4617469846019001F023F9B8F1000F50
:101BB00001D101243FE0E168606841F0500101F08B
:101BC0000DF9310A6068FFF77FFF31466068FFF763
:101BD0007BFF0021606801F004F908B100242AE0CD
:101BE000C146E168B8F1200F28BF4FF0200941F04D
:101BF000500101234A46C9B2606801F0D9F802F0E9
:101C00003FF903681B6998474845E7DB3D46C7EB4A
:101C1000060A02F035F903685B69984705F8010B7D
:101C2000EA1BC5EB0803914505EB0A063B44F0D8D7
:101C300098462F46BAE701A8FFF76FFF204602B08B
:101C4000BDE8F0872DE9F347044640680D4690460D
:101C50001F46019001F0CDF84FB3E168606841F094
:101C6000500101F0BBF8290A6068FFF72DFF2946F3
:101C70006068FFF729FF464608F11E09C8EB050A10
:101C8000606816F8011B036806EB0A059B68984715
:101C9000B145B04607F1FF3701D0002FF0D1012147
:101CA000606801F09EF80028D6D0002400E00124EE
:101CB00001A8FFF732FF204602B0BDE8F0872DE90A
:101CC000F0430E461546804640688BB01C46019096
:101CD00001F08FF8AE4223D2264425440CB90124EA
:101CE0003FE027461E2C28BF1E27D8F80030F61BE1
:101CF000D3F8089002AA3B4631464046ED1BC84740
:101D000008B900242DE0D8F8003002AAD3F80C90CE
:101D100029463B464046C8470028F2D0E41BDDE791
:101D2000DDD9002CDBD027461E2CD8F8003028BF88
:101D30001E27D3F8089002AA3B4631464046C847C2
:101D40000028DED0D8F8003002AAD3F80C9029463B
:101D50003B464046C8470028D3D03E443D44E41BA0
:101D6000DFE701A8FFF7D9FE20460BB0BDE8F083FE
:101D700000F0B0B808B5024B1B68DB6B019308BDDF
:101D80002000060808B5024B1B685B6C019308BD78
:101D90002000060808B5024B1B689B6C019308BD28
:101DA0002000060808B5024B1B68DB68019308BDDC
:101DB000D001040808B5024B1B68DB69019308BD1C
:101DC000D001040808B5024B1B681B6A019308BDCB
:101DD000D001040808B5024B1B685B6A019308BD7B
:101DE000D001040808B5024B1B689B6A019308BD2B
:101DF000D001040808B5024B1B68DB6A019308BDDB
:101E0000D001040808B5024B1B685B6C019308BD48
:101E1000D001040808B5024B1B689B6C019308BDF8
:101E2000D001040808B5024B1B689B6D019308BDE7
:101E3000D001040808B5024B1B681B6F019308BD55
:101E4000D001040808B5024B1B685B6E019308BD06
:101E5000B801040808B5024B1B689B6E019308BDCE
:101E6000B801040808B5024B1B68DB6E019308BD7E
:101E7000B801040808B5024B1B685B68019308BDF4
:101E80009C01040808B5024B1B68DB68019308BD80
:101E90009C01040808B5024B1B685B69019308BDEF
:101EA0009C01040808B5024B1B68DB69019308BD5F
:101EB0009C01040808B5024B1B689B6D019308BD8B
:101EC0009C01040808B5024B1B68DB6D019308BD3B
:101ED0009C01040808B5024B1B681B68019308BDF0
:101EE000B001040808B5024B1B685B68019308BD8C
:101EF000B001040808B5024B1B689B68019308BD3C
:101F0000B001040808B5024B1B68DB68019308BDEB
:101F1000B001040808B5024B1B681B69019308BD9A
:101F2000B001040808B5024B1B685B69019308BD4A
:101F3000B001040808B5024B1B689B69019308BDFA
:101F4000B001040808B5024B1B68DB69019308BDAA
:101F5000B001040808B5024B1B681B6B019308BD58
:101F6000B001040808B5024B1B68DB68019308BD8B
:101F7000AC01040808B5024B1B689B69019308BDBE
:101F8000AC01040808B5024B1B68DB69019308BD6E
:101F9000AC01040808B5024B1B681B6A019308BD1D
:101FA000AC01040808B5024B1B685B6A019308BDCD
:101FB000AC01040808B5024B1B689B6A019308BD7D
:101FC000AC01040808B5024B1B68DB6A019308BD2D
:101FD000AC01040808B5024B1B681B6B019308BDDC
:101FE000AC01040808B5024B1B685B6B019308BD8C
:101FF000AC01040808B5024B1B681B6C019308BDBB
:10200000AC01040808B5024B1B689B6C019308BD2A
:10201000AC01040808B5024B1B68DB6C019308BDDA
:10202000AC01040808B5024B1B681B6D019308BD89
:10203000AC01040808B5024B1B68DB69019308BDBD
:10204000B401040808B5024B1B681B6A019308BD64
:10205000B401040808B5024B1B689B69019308BDD5
:10206000C401040808B5024B1B685B6A019308BDF4
:10207000C401040808B5024B1B689B6A019308BDA4
:10208000C401040808B5024B1B68DB6A019308BD54
:10209000C401040808B5024B1B681B6B019308BD03
:1020A000C401040808B5024B1B685B6B019308BDB3
:1020B000C401040808B5024B1B689B6B019308BD63
:1020C000C401040808B5024B1B681B6C019308BDD2
:1020D000C401040808B5024B1B68DB6C019308BD02
:1020E000C401040808B5024B1B681B68019308BDB6
:1020F0001C00060808B5024B1B681B69019308BD4C
:102100001C00060808B5024B1B685B69019308BDFB
:102110001C00060808B5024B1B689B69019308BDAB
:102120001C00060808B5024B1B68DB69019308BD5B
:102130001C00060808B5024B1B681B6A019308BD0A
:102140001C00060808B5024B1B685B6B019308BDB9
:10215000A001020808B5024B1B681B6D019308BD66
:10216000A001020808B5024B1B685B6D019308BD16
:10217000A001020808B5034B1B68D3F898300193FF
:1021800008BD0000A001020808B5024B1B681B68CF
:10219000019308BDA401040808B5024B1B685B68E5
:1021A000019308BDA401040808B5024B1B685B69D4
:1021B000019308BDA401040808B5024B1B689B6984
:1021C000019308BDA401040808B5024B1B68DB6A33
:1021D000019308BDA401040808B5024B1B68DB6C21
:1021E000019308BDA401040808B5024B1B685B6D90
:1021F000019308BDA401040808B5024B1B689B6D40
:10220000019308BDA401040808B5034B1B68D3F86B
:102210009030019308BD0000A401040808B5034BE9
:102220001B68D3F89C30019308BD0000A40104088A
:1022300008B5034B1B68D3F8B030019308BD00000C
:10224000A401040808B5034B1B68D3F8B43001930C
:1022500008BD0000A401040808B5024B1B681B68F8
:10226000019308BDCC01040808B5024B1B685B68EC
:10227000019308BDCC01040808B5024B1B689B689C
:10228000019308BDCC01040808B5024B1B68DB684C
:10229000019308BDCC01040808B5024B1B681B69FB
:1022A000019308BDCC01040808B5024B1B685B69AB
:1022B000019308BDCC01040808B5024B1B681B6ADA
:1022C000019308BDCC01040808B5024B1B68DB6A0A
:1022D000019308BDCC01040808B5024B1B681B6BB9
:1022E000019308BDCC01040808B5024B1B68DB6BE9
:1022F000019308BDCC01040808B5024B1B685B685C
:10230000019308BDC801040808B5024B1B689B680F
:10231000019308BDC801040808B5024B1B68DB68BF
:10232000019308BDC801040808B5024B1B681B696E
:10233000019308BDC801040808B5024B1B685B691E
:10234000019308BDC801040808B5024B1B689B69CE
:10235000019308BDC801040808B5024B1B68DB697E
:10236000019308BDC801040808B5024B1B681B6A2D
:10237000019308BDC801040808B5024B1B681B6B1C
:10238000019308BDC801040808B5024B1B685B6BCC
:10239000019308BDC801040808B5024B1B681B68FF
:1023A000019308BDA001040808B5024B1B685B68D7
:1023B000019308BDA001040808B5024B1B689B6887
:1023C000019308BDA001040808B5024B1B681B69F6
:1023D000019308BDA001040808B5024B1B689B6966
:1023E000019308BDA001040808B5024B1B68DB6916
:1023F000019308BDA001040808B5024B1B68DB6A05
:10240000019308BDA001040808B5024B1B681B6BB3
:10241000019308BDA00104080021FFF7C5BE10B557
:10242000836804460BB901F0B0FDC3689847A36800
:102430001BB103222146204698472046BDE81040A4
:10244000102101F086BD002211464068FFF76CBFE5
:102450002DE9FF41002604AC054610468846174684
:1024600044F8046D02F0D3FF009681B2D8F804302E
:1024700022463846FFF77EFC20B13146284600F060
:102480003FFD03E02146284600F032FD284604B017
:10249000BDE8F081002211464068FFF765BF0022C9
:1024A00011464068FFF770BF00224068FFF764BF25
:1024B000002281F001014068FFF74EBF00231A4659
:1024C00019464068FFF740BF00231A461946406886
:1024D000FFF732BF002211464068FFF715BF002208
:1024E00002214068FFF718BF00231A464068FFF733
:1024F00003BF0000F0B50F461A4B002503601826F5
:10250000283389B043608560C56032462946044659
:10251000103002F00EFF2A4629467868FFF704FFC4
:1025200008B9A0601BE02946324602A80095019533
:1025300002F0FFFE02A96846ADF80860FFF722FC32
:1025400010B10123A3600AE0009B019AA360E2603E
:102550000BB90223A36002A9204600F07DF82046B3
:1025600009B0F0BD3C62080838B5084C28252A4659
:102570000021204602F0DDFE4FF0FF336360044B84
:1025800004225A60034A25801A6038BDF0020020F8
:10259000E8020020086208087047007D70470000CC
:1025A00008B5037D1BB18069B0F1004F01D1002057
:1025B00008BD02F031FB024902F036FC08BD00BF45
:1025C0000000C84208B5037D1BB1006AB0F1004F9E
:1025D00001D1002008BD02F01FFB024902F024FCDB
:1025E00008BD00BF0000C84210B50446282101F014
:1025F000B0FC204610BD000008B5037D5BB1406A09
:10260000002808DB02F008FB044902F00DFC044935
:1026100002F056FB08BD034808BD00BF00FF7F471E
:102620000000C842000080BF08B5037D5BB1C069EF
:10263000002808DB02F0F0FA044902F0F5FB044937
:1026400002F03EFB08BD034808BD00BF00FF7F4706
:102650000000C842000080BF30B50D4600F11004F4
:102660000FCD0FC495E8030084E80300012030BDBE
:102670002DE9F04107460C4615462AB9BDE8F04160
:102680000368C9B29B681847002907DA0A2A05D1EE
:102690002D2100F089FD6142064601E02146002619
:1026A000EAB2384600F099FD3044BDE8F08170B5DB
:1026B0000D4606460A2281682846FFF7D9FF2C21DD
:1026C0000446284600F070FD0A220444F1682846BA
:1026D000FFF7CEFF204470BDA0F10400FFF7E7BF75
:1026E00070470020704710B50446102101F031FCFE
:1026F000204610BD08B508B1FFF7F5FF08BD002260
:1027000002604FF69C72828010B5B1F9044084805B
:102710008A8002680C6804600A6010BD10B5044627
:102720000068FFF741FE204610BD38B5C468F4B11B
:102730002378022B03D104F10C00FFF7EFFF65684B
:1027400035B12846FDF795FD1021284601F001FC22
:10275000A56835B12846FDF78CFD1021284601F00B
:10276000F8FB2046BDE83840142101F0F2BB38BD2B
:1027700010B588B00446684600F0BBFD694604A861
:1027800000F0D9FD04A8A047044604A800F06AFDA3
:10279000684600F067FD204608B010BDF0B507465A
:1027A0000E46154685B0102422460021684602F0E8
:1027B000C0FD002269461046ADF80040029703961E
:1027C0000195FFF751FD05B0F0BD13B5044691E842
:1027D000050000234B600B602060626001A801933C
:1027E0000093FEF75DF9204602B010BD0B68036050
:1027F00013B15A6801325A607047F7B50C46064665
:102800000F4654F8043B02AD45F8083D214601A8A7
:10281000FFF7ECFF29463046FFF7D7FF01A8FEF788
:102820003FF92046FEF73CF93846082101F091FBBC
:10283000304603B0F0BD13B50B46044603C88DE81F
:10284000030093E8030084E803009DE8030083E8A5
:10285000030002B010BD000038B500230446036039
:1028600010200D46FDF71BFC28B101234360836057
:10287000024BC56003602060204638BD70620808C6
:10288000826810B50AB901F080FBC368BDE810404A
:10289000184708B5006800F11001FFF7F1FF08BD07
:1028A000826810B50AB901F070FBC368BDE810403A
:1028B000184708B5006800F11001FFF7F1FF08BDE7
:1028C00038B5002383608B6804460D462BB1022285
:1028D0009847EB68E360AB68A360204638BD000012
:1028E000F0B589B004686846FFF709FF4FF00202AF
:1028F00000238DF80830D4E84F3F002B03D1C4E803
:10290000412F0029F7D102D08DF8083063E014F18F
:102910000C0503D069462846FFF7F1FEBFF35F8F31
:1029200001236370BFF35F8F04F10803002053E8B5
:10293000006F43E80002002AF9D1BFF35F8F002E39
:1029400049D0FFF749FC20B129463046FFF798FFF0
:102950003AE0314602A8FFF7B3FFE068B4F910503F
:1029600008B102F039FD06901020ADF81C50FDF7BB
:1029700096FB0546E8B1002787601820FDF78FFB1E
:10298000044688B10146876002A8FFF754FF049B04
:10299000A268A360059B0492E26806A9E36004F1C3
:1029A00010000592FFF7ABFE0D4B2C60EB600D4B5A
:1029B000AB6006A8FFF7B2FE02A8FDF75AFC0022A2
:1029C00029460948FFF710FC3046FDF752FC10215C
:1029D000304601F0BEFA6846FFF7A0FE09B0F0BD30
:1029E00093280808092B08081F2408082DE9F04F30
:1029F0008BB006460F46904699469DF850A0FFF7CB
:102A000053FC07AD834630BB4FF62E73059005A9E6
:102A10002846ADF81830FFF772FE1420FDF73FFB93
:102A2000044658B10223037001234370C0F804B078
:102A3000C0F808B029460C30FFF761FE3046214649
:102A400040F8044BFFF708FF2846FFF767FE05A88C
:102A5000FFF764FE52E000240C2314206C60AC608D
:102A60000793FDF71CFB014618B1047044704460E5
:102A7000846004A80391FFF7EFFE224B082008931F
:102A8000FDF70DFB044628B1039B04A940F8043B65
:102A9000FFF7ACFE00955FFA8AF34A464146384696
:102AA0000994FFF709FC20B9039B5B7803F0FF0250
:102AB00083B1039B04A906A80593FFF797FE05A918
:102AC0003046FFF782FE06A8FDF7EAFF04A8FDF7EF
:102AD000E7FF13E04FF69C7305A903A80592ADF834
:102AE0001830FFF7FDFE05A8FFF718FE05A80999A5
:102AF000FFF783FE06A8FDF7D3FFDAE730460BB0F9
:102B0000BDE8F08F792C0808022AF8B5044606D0F3
:102B1000032A17D0012A22D10B6803601FE0182076
:102B20000E68FDF7BCFA054650B13146FFF7C8FE06
:102B30003069B6F9147008B102F04EFC2861AF821A
:102B400025600CE0046854B104F11000FFF7E6FDC5
:102B50002046FDF78EFB1821204601F0FAF90020EF
:102B6000F8BD38B5002383608B6804460D462BB151
:102B700002229847EB68E360AB68A360204638BD4B
:102B8000022A70B5044606D0032A11D0012A18D1B2
:102B90000B68036015E014200E68FDF780FA054607
:102BA00020B13146FFF7DDFF337C2B74256008E050
:102BB000046834B12046FDF75CFB1421204601F087
:102BC000C8F9002070BD0000F0B50C46BFF35F8F60
:102BD00087B0002350E8006F40E80032002AF9D1A6
:102BE000BFF35F8F002E3FD01846FFF7F5FA074678
:102BF00020B121463046FFF753FE2EE0314601A8B2
:102C0000FFF7AFFF237810208DF81430FDF747FA57
:102C10000546D0B187601420FDF741FA044678B12B
:102C20008760014601A8FFF706FE039BA268A36028
:102C3000049B0392E268E3609DF8143004922374CD
:102C40000A4B2C60EB600A4BAB6001A8FDF711FB4F
:102C5000002229460748FFF7C7FA3046FDF709FB6F
:102C60001021304601F075F907B0F0BDB32808080F
:102C7000812B08081F24080830B5044685B00D468E
:102C800068461146FFF7B9FD7CB124B228460DB164
:102C900002F0A2FB029002A96846ADF80C40FFF7D3
:102CA0001FFE02A8FFF73AFD1DE04FF00102009859
:102CB0008DF80840D0E84F3FA34203D1C0E8412F30
:102CC0000029F7D102D08DF808300CE010F10C018A
:102CD0004FF0010318BF0373BFF35F8F043000F898
:102CE000033CFFF771FF01A8FDF7DAFE05B030BD28
:102CF0007047F8B5064615460C468F18BC4206D0FC
:102D0000336814F8011B9B6830469847F6E728465D
:102D1000F8BD0022007CFFF73DB90021007CFFF7E1
:102D200041B90021007CFFF745B90021007CFFF785
:102D300049B90021007CFFF74DB910B504461421B4
:102D400001F007F9204610BD10B50446002363606A
:102D50004FF47A73A360044B217408462360114634
:102D6000FFF748F9204610BD8C62080800231A4678
:102D70001946007CFFF7F6B870B50C46064686B0DB
:102D800014252A46002101A802F0D3FA2378002254
:102D90008DF80830636801A90393E368307C0493DD
:102DA000237AADF804500593FFF73CF906B070BDE7
:102DB0001FB500338DF800104FF06401039118BF68
:102DC0000123694601928DF80830FFF7D5FF05B061
:102DD0005DF804FB0022007CFFF7CCB8C9B2FFF716
:102DE000F9BF0022007CFFF7CDB80021007CFFF77F
:102DF000F9B808B50021007CFFF704F9B0FA80F0BB
:102E0000400908BD08B50021007CFFF703F9B0FABE
:102E100080F0400908BD0047F0B51C4685B00E465D
:102E200017460546FFF78EF8002084424FF0040352
:102E300003908DF80C30B4BF03469DF8283032461D
:102E4000A4BF8DF80E3003AB009306493B462846DD
:102E5000A8BF8DF80D40FFF76DF8B0FA80F040097B
:102E600005B0F0BD172E0808F8B50646FFF76AF85A
:102E7000074668B9084D55F826405CB12046FDF775
:102E8000F8F91021204601F064F845F8267001E0B9
:102E90000020F8BD0120F8BD18030020704710B5D0
:102EA0000446082101F055F8204610BDF8B50F463C
:102EB00000F10806051D002416F8011D0A223846F7
:102EC00000F08BF9AE42044407D0002CF4D02E2140
:102ED000384600F069F90444EEE72046F8BD0000EA
:102EE000024A026000224260704700BFB4620808D4
:102EF000024A02600A684260704700BFB462080874
:102F0000014A416002607047B462080810B59DF83C
:102F1000084044EA032343EA024242EA0161416075
:102F200010BD000037B5044D05609DF818500095A0
:102F3000FFF7ECFF03B030BDB4620808014A024B52
:102F40001A60704736630808D403002000231A462D
:102F50004068FFF7D1B9002202214068FFF7DCB9D1
:102F6000002211464068FFF7CFB9002211464068A1
:102F7000FFF7DAB900231A4619464068FFF7DCB9B3
:102F800000231A4619464068FFF7DEB9002281F097
:102F900001014068FFF7E0B900224068FFF7ECB993
:102FA000002211464068FFF7EFB900221146406841
:102FB000FFF7DAB9F0B5174687B0054604A8FFF762
:102FC0008FFF002606AC384644F80C6D02F01FFA5D
:102FD0000A4B009681B25B6822463846FEF7CAFE6D
:102FE00020B131462846FFF78BFF03E021462846F3
:102FF000FFF77EFF284607B0F0BD00BFE8020020C3
:10300000024B034A1A6000225A607047D80300201E
:10301000A063080808B500F059FFBDE80840FFF7B5
:10302000E8BE10B50446017009B1FFF7F3FF204672
:1030300010BD08B500F04AFFBDE80840FFF7E2BE4A
:1030400010B5037804460BB1FFF7F3FF204610BD1F
:1030500010B504460068FFF7ECFF204610BD37B5F9
:1030600002AC0D4644F8040DFFF7D4FF00F02EFF2C
:103070006B21FFF7B3FE00F029FF036829469B6828
:10308000984700F023FF0121FFF7ABFE00F01EFF81
:1030900001231A466B21FFF78BFE00F017FF036830
:1030A0005B69984705462046FFF7D2FFE8B203B0B8
:1030B00030BD73B502AC15460E4644F8040DFFF75B
:1030C000A9FF00F003FF6B21FFF788FE00F0FEFE72
:1030D000036831469B68984700F0F8FE036829466C
:1030E0009B68984700F0F2FE0121FFF77AFE204628
:1030F000FFF7AEFF02B070BD37B5054602AC44F82D
:10310000040DFFF787FF01212846FFF7A8FF0121E3
:1031100000F0CF022846FFF7CCFF2046FFF798FFCC
:10312000012003B030BD37B5054602AC44F8040DAC
:10313000FFF770FF01212846FFF791FF00F0CF0253
:1031400042F0100201212846FFF7B3FF2046FFF7A7
:103150007FFF012003B030BDFFF7E5BFF8B506469D
:103160000D468F180024BD420CD0336815F8011BA2
:103170009B6830469847002801DB0444F3E7002CA5
:1031800008BF04462046F8BD70B505460C46084603
:1031900049B102F03CF92B68024621462846BDE8B9
:1031A0007040DB68184770BD03689B68184738B5E6
:1031B0000D210546FFF7F8FF0A2104462846FFF7D0
:1031C000F3FF204438BD38B50546FFF7DDFF044660
:1031D0002846FFF7ECFF204438BD012A98BF0A2299
:1031E00030B50B468BB000218DF824100DF123046F
:1031F000B3FBF2F505FB1233DBB2092B94BF30337E
:103200003733DBB2214604F801392B46002DEFD1CC
:10321000FFF7BAFF0BB030BD10B50446FDF729F833
:10322000204610BD034800238360034A034900F091
:103230008BBE00BFE00300203401002019320808D3
:1032400070B504460E46002540F8085FFEF7DAFD2B
:1032500030462670FEF7EEFE6560204670BD0078B1
:10326000FEF7F0BE10B504460068FFF79DF8204653
:1032700010BD10B50446006808B1FFF795F80023AB
:103280002360A360636010BD38B504460D46006836
:103290000131FFF791F810B184E82100012038BD19
:1032A00010B50368044613B143688B4207D2204629
:1032B000FFF7EAFF20B1A3680BB922681370012061
:1032C00010BD70B50E46114604461546FFF7E8FFDF
:1032D00018B92046FFF7CDFF09E02A463146A56020
:1032E000206802F01BF82268A3680021D154204610
:1032F00070BD38B5002304460360436083600373E8
:103300000D4639B1084602F082F8294602462046A9
:10331000FFF7D7FF204638BD884210B50B4604465C
:1033200007D0096819B19A68FFF7CBFF01E0FFF7F2
:10333000A0FF204610BD10B5044600230360436083
:1033400083600373FFF7E8FF204610BD38B50546DC
:103350000C4641B1084602F05AF82146024628467A
:10336000FFF7AFFF01E0FFF784FF284638BD10B537
:10337000044600238AB023606360A3602373084679
:1033800001A900F0E6FB01A92046FFF7DFFF204678
:103390000AB010BD08B582680B4612B919B90120F0
:1033A00008BD11B90368187802E0006802F001F85E
:1033B000B0FA80F0400908BD10B50446006818B1A5
:1033C000FEF7F2FF0023236010BD38B5B1F90430D9
:1033D0000D4683800B4653F8062F0446C0F806209E
:1033E0009B884381FFF7E8FF2B6813B1236000231C
:1033F0002B60204638BDB1F9043010B50BB90A680E
:103400009AB10C685CB1A288012A03D0042A06D1C3
:10341000022205E0A4898A710B814C8105E0042217
:103420000B814FF6FF738A714B8151F8063F0360A1
:103430008B88838010BD000038B50C460546FFF729
:10344000BBFF44B12088FEF7A7FF286028B122887F
:10345000214601F063FF002038BD014838BD00BFA0
:10346000FCFEFFFF014600228C20FEF7F3BC00208B
:10347000FFF7F8BFF0B5304D0B7D04468BB0084622
:10348000AF1D13B30B681B79FBB14FF6FF7300221E
:1034900002A904300292ADF80C208DF80E20ADF890
:1034A0001020ADF81230FEF7CDFE0AAB53F81A2DFE
:1034B00000B29B88ADF80C00A880C5F806200299E0
:1034C000BB802846FFF7B8FF1CE0202302931B4B6C
:1034D000002600931A493346322002AA0396FEF7CB
:1034E00039FE4FF6FF73ADF812304FF6F26302A9C2
:1034F000114802968DF80E60ADF81060ADF80C30F2
:10350000FFF763FF02A8FFF757FF00232360A380A4
:10351000A37123814FF6FF736381B5F904302968E5
:10352000A3803B682046C4F80630BB886381FFF760
:1035300083FF20460BB0F0BDF0030020D3630808E2
:10354000CC63080830B5044685B0084611461A46D3
:103550000023FEF731FE00230193ADF808308DF80B
:103560000A304FF6FF73094D01A9ADF80C0028464B
:10357000ADF80E30FFF729FF01A8FFF71DFF204629
:103580002946FFF738FF204605B030BDF003002084
:103590004FF6FF7310B5084C00202060A080A0718A
:1035A00020816381FEF7F8FD2046BDE81040034A04
:1035B000034900F0C9BC00BFF00300203401002023
:1035C00063020808F0B5144B144F1E68144B0644F0
:1035D00018683B6806449E428BB01BD00AA840F88E
:1035E000286D01F0A3FD0446436901AD03F26C733D
:1035F00043610FCC0FC50FCC0FC5D4F800E0094CC8
:10360000C5F800E001AD0FCD0FC40FCD0FC43E6073
:10361000C4F800E00BB0F0BD2C040020280400200A
:1036200024040020FC03002008B50020FEF754FE0F
:1036300028B1FEF739FE80F00100C0B208BD0120BC
:1036400008BD000008B5FFF7BDFF014B986808BD35
:10365000FC03002008B5FFF7B5FF014BD86808BD93
:10366000FC03002008B5FFF7ADFF024B986901305D
:1036700008BD00BFFC03002008B5FFF7A3FF024B05
:103680001869013008BD00BFFC03002008B5FEF733
:1036900009FC034B1B681844024B1B68184408BD07
:1036A0002C0400202404002010B50949044601F030
:1036B000A5FC60B90749204601F0BEFC38B90649AF
:1036C000204601F0FDFA01F0C1FC044B186010BD6A
:1036D000000040C100006041000061452C04002052
:1036E00010B50021044601F089FC68B94FF0804113
:1036F000204601F0A1FC38B90449204601F0E0FA67
:1037000001F0A4FC024B186010BD00BF0000614531
:1037100078000020024B1A68024B1A60704700BF05
:103720007800002024040020014B00221A6070471A
:103730002404002037B50E4B04461B6802A8194428
:103740000C4B1B68194440F8041D01F0EFFC01F01C
:10375000A3FC054601F05BFE0023284400F8013C71
:1037600029462046FFF7C5FD204603B030BD00BF07
:103770002C0400202404002010B50020FEF79AFB42
:10378000044668B9FEF700FD01280BD12046FEF77C
:1037900033FD38B9FFF748FF30B9FEF76DFDF9E7A3
:1037A000012010BD002010BDFFF73EFF0020FEF7F6
:1037B00081FB003018BF012010BD08B5FFF7DCFF0A
:1037C000BDE80840FEF76EBB08B5FFF7F6FFFFF750
:1037D000F9FE014B986808BDFC03002008B5FFF70F
:1037E000ECFFFFF7EFFE014B586808BDFC0300201B
:1037F00008B5FFF7E2FFFFF7E5FE014BD86808BD0B
:10380000FC03002008B5FFF7D8FFBDE80840FFF72C
:1038100029BF08B5FFF7D1FFBDE80840FFF72CBF6F
:10382000024B1A68024B1A60704700BF7C000020F0
:103830002004002070474174704708B5007CFEF7F3
:1038400041FC20EAE07008BD08B5007CFEF712FCE0
:1038500020EAE07008BD08B5007CFEF71BFC30EAEA
:10386000200028BF4FF0FF3008BD08B5007CFEF7F0
:1038700009FC30EA200028BF4FF0FF3008BD007C73
:10388000FEF710BC10B50446142100F062FB204680
:1038900010BD70B5457C04460E4625B9007CFEF788
:1038A00011FC002805DD3146207CBDE87040FEF7A4
:1038B000D9BB284670BD000010B504460846114625
:1038C000002262604FF47A72A260054A207422607E
:1038D000012262741A46FEF7BDFB204610BD00BFF0
:1038E0002C6408080023007CFEF7F4BB0022FFF7DD
:1038F000F9BF007CFEF7DEBB38B50C4D296811F02E
:10390000010411D12846FCF7CEFB68B1084A2146D4
:10391000084B0948FFF7D0FF2846FCF7C9FB074AC8
:103920000749054800F010FB034838BDC8040020D3
:10393000CC04002044040020300400203401002086
:103940003538080841747047704708B50021007C7D
:10395000FEF7E0FB30EA200028BF4FF0FF3008BD43
:1039600008B50121007CFEF7D5FB30EA200028BF16
:103970004FF0FF3008BD08B5007CFEF7C3FB20EA1E
:10398000E07008BD08B5007CFEF7B4FB20EAE070EB
:1039900008BD007CFEF7CEBB10B50446142100F034
:1039A000D8FA204610BD38B50446007C0D46FEF717
:1039B000A9FB002801DC607C28B12946207CFEF7A9
:1039C000B1FB20EAE07038BD10B504460023636007
:1039D0004FF47A73A360054B0846236001232174DA
:1039E00063741146FEF77EFB204610BD5C64080838
:1039F00010B504461422002101F09BFC054B204623
:103A00006360054BE36040F201132381812323822D
:103A100010BD00BFD50500205405002030B50E4D67
:103A200087B001A8FFF7E4FF296811F0010410D165
:103A30002846FCF738FB60B101AA21460748FFF78A
:103A4000C3FF2846FCF734FB054A0649034800F04B
:103A50007BFA024807B030BD50050020D806002090
:103A6000340100204939080810B504461422002109
:103A700001F05FFC054B20466360054BE36040F2BC
:103A8000011323818123238210BD00BF88070020FA
:103A9000F006002010B50E4C86B001A8FFF7E4FF39
:103AA0002368DB0710D42046FCF7FDFA60B101AAB9
:103AB00001210848FFF788FF2046FCF7F9FA064A7B
:103AC0000649044800F040FA024806B010BD00BFA5
:103AD000EC06002074070020340100204939080852
:103AE00010B5044601F093FC013823182046984293
:103AF00006D20278197800F8011B03F80129F6E7CD
:103B000010BD70B50C46911E222920D825462946A5
:103B100010B9234430220EE0B0FBF2F602FB16008F
:103B2000C1B2092805F8011B94BF3031573105F89F
:103B3000011C3046EBE7994202D201F8012BFAE76B
:103B4000002320460B70FFF7CBFF204670BD0020FE
:103B500070BD38B5031E0C4615460BDAB3F1004FA5
:103B60004FF02D0214BF5842184601230A702A460E
:103B7000194400E00123FFF7C4FF204638BD0000D0
:103B800008B5184B33B1FFF749FF03681B69984725
:103B900000281EDC144B33B1FFF7AEFE03681B692F
:103BA0009847002818DC114B0BB1AFF30080104B85
:103BB0000BB1AFF300800F4B0BB1AFF300800E4B96
:103BC0007BB1FFF767FF03681B699847002806DC95
:103BD00008BDAFF30080DDE7AFF30080E3E7AFF3AC
:103BE000008008BD00000000000000000000000090
:103BF00000000000000000000000000008B5FFF712
:103C0000BFFFFEF747F9014B186008BDA40800206C
:103C10000248034A0349121A01F080BB00400240E7
:103C2000044002401067080807B5002300931A46B5
:103C30006FF07701FEF7F2FA03B05DF804FB0000C5
:103C400007B543880A2B08D0502B09D1094B1B68B4
:103C50003BB103B05DF804EB1847FFF7E5FF06E062
:103C6000002300931A466FF07701FEF7D7FA03B0EE
:103C70005DF804FB8C08002038B5104C104D23680B
:103C8000AB42104B0CBF012200221A7002D0FFF78A
:103C9000BFFF2560FEF7EEF8044601F053FB0A4B28
:103CA00013B12046AFF3008000210748FEF71CFB4C
:103CB000BDE8384000210548FEF7A6BA00400240A2
:103CC0001E1C279A9008002000000000413C0808B4
:103CD00008B5024B1B681B68019308BD9C010208D4
:103CE00008B5024B1B685B68019308BD9C01020884
:103CF00008B5024B1B689B68019308BD9C01020834
:103D000010B50446806808B1FEF784F8204610BD5F
:103D100070B51A4E0446316811F001050FD13046D6
:103D2000FCF7C1F958B129461548FFF789FA304622
:103D3000FCF7BEF9134A1449114800F005F9104880
:103D4000FFF78DFA28B1A4F10D03022B01D8002052
:103D500070BD00F095F8FFF748F808B1012CF6D9CE
:103D6000FFF7CAFDFFF7C5FD18B1A4F11203012B3F
:103D7000EDD92E2C8CBF0020012070BD94080020AE
:103D80009808002034010020013D08082E2838B58D
:103D900004460D460AD8FF2908D0FFF7B9FF28B11D
:103DA00029462046BDE83840FEF7A4B838BD38B5EE
:103DB00004460D46FEF7A6F8FF2810D0062804D8C2
:103DC0004D2323FA00F0C30709D42046FFF7A0FFD4
:103DD00028B129462046BDE83840FEF79BB838BDDB
:103DE00010B50446FEF78EF80438C0B2012808D991
:103DF0002046FFF78DFF20B12046BDE81040FEF7BA
:103E000091B8002010BD10B5044609289CBF0A34A3
:103E1000A4B22046FFF77CFF50B103212046FEF7F5
:103E200061F8032804D12046BDE81040FEF792B89F
:103E3000002010BD70B5044614252A46094E002105
:103E400001F077FA258020253146A56025612846B6
:103E500000F099F831466060284600F094F8E06080
:103E6000204670BD8464080810B50446FFF7E2FFE1
:103E7000204610BD10B50446FFF7DCFF204610BDFC
:103E800030B50E4D87B0296811F0010413D12846D2
:103E9000FCF709F978B101A8FFF7E6FF01AA21466E
:103EA0000748FEF751FF2846FCF702F9054A064984
:103EB000034800F049F8024807B030BDA8080020C8
:103EC000C008002034010020F12C080810B50E4C69
:103ED00086B02368DB0713D42046FCF7E4F878B1FA
:103EE00001A8FFF7C7FF01AA02210848FEF72CFF2F
:103EF0002046FCF7DDF8064A0649044800F024F89D
:103F0000024806B010BD00BFD4080020AC08002055
:103F100034010020F12C080813B5084C00231A4680
:103F2000194600932046FEF7FDFF2046044A054946
:103F300002B0BDE8104000F007B800BFD80800206C
:103F4000340100209D2E08080B460146184601F05A
:103F5000DFB8FCF7A6B80000024B1868BFF35F8F0C
:103F6000704700BFE008002010B5002814BF0446C9
:103F700001242046FEF710FA20B9FFF7EDFF08B143
:103F80008047F6E710BDFFF7EFBF08B5FEF734FA3C
:103F9000244B1A68D0075CBF01221A60224B1A68B2
:103FA000D1075CBF01221A60204B1A68D2075CBFA0
:103FB00001221A601E4B1A68D0075CBF01221A60EA
:103FC0001C4B1A68D1075CBF01221A601A4B1A6891
:103FD000D2075CBF01221A60184B1A68D0075CBF79
:103FE00001221A60164B1A68D1075CBF01221A60C1
:103FF000144B1A68D2075CBF01221A60124B1A6870
:10400000D0075CBF01221A60104B1A68D1075CBF51
:1040100001221A600E4B1A68D2075CBF01221A6097
:10402000704700BF100900200C090020080900207B
:104030000409002000090020FC080020F8080020E6
:10404000F4080020F0080020EC080020E808002018
:10405000E4080020184B1A68D1075CBF01221A60DF
:10406000164B1A68D2075CBF01221A60144B1A68FB
:10407000D0075CBF01221A60124B1A68D1075CBFDF
:1040800001221A60104B1A68D2075CBF01221A6025
:104090000E4B1A68D0075CBF01221A600C4B1A68DD
:1040A000D1075CBF01221A600A4B1A68D2075CBFB5
:1040B00001221A60704700BF300900202C0900203F
:1040C0002809002024090020200900201C090020C4
:1040D0001809002014090020184B1A68D1075CBF8A
:1040E00001221A60164B1A68D2075CBF01221A60BF
:1040F000144B1A68D0075CBF01221A60124B1A6871
:10410000D1075CBF01221A60104B1A68D2075CBF4E
:1041100001221A600E4B1A68D0075CBF01221A6098
:104120000C4B1A68D1075CBF01221A600A4B1A684F
:10413000D2075CBF01221A60704700BF50090020FF
:104140004C090020480900204409002040090020B3
:104150003C0900203809002034090020244B1A684B
:10416000D0075CBF01221A60224B1A68D1075CBFDE
:1041700001221A60204B1A68D2075CBF01221A6024
:104180001E4B1A68D0075CBF01221A601C4B1A68CC
:10419000D1075CBF01221A601A4B1A68D2075CBFB4
:1041A00001221A60184B1A68D0075CBF01221A60FE
:1041B000164B1A68D1075CBF01221A60144B1A68AB
:1041C000D2075CBF01221A60124B1A68D0075CBF8D
:1041D00001221A60104B1A68D1075CBF01221A60D5
:1041E0000E4B1A68D2075CBF01221A60704700BFED
:1041F000800900207C090020780900207409002033
:10420000700900206C090020680900206409002062
:10421000600900205C090020580900205409002092
:1042200081F0004102E000BF83F0004330B54FEA67
:1042300041044FEA430594EA050F08BF90EA020FD4
:104240001FBF54EA000C55EA020C7FEA645C7FEA67
:10425000655C00F0E2804FEA5454D4EB5555B8BF8A
:104260006D420CDD2C4480EA020281EA030382EAFB
:10427000000083EA010180EA020281EA0303362D8D
:1042800088BF30BD11F0004F4FEA01314FF4801C60
:104290004CEA113102D0404261EB410113F0004F72
:1042A0004FEA03334CEA133302D0524263EB430329
:1042B00094EA050F00F0A780A4F10104D5F1200EC7
:1042C0000DDB02FA0EFC22FA05F2801841F1000122
:1042D00003FA0EF2801843FA05F359410EE0A5F1F6
:1042E00020050EF1200E012A03FA0EFC28BF4CF027
:1042F000020C43FA05F3C01851EBE37101F00045DD
:1043000007D54FF0000EDCF1000C7EEB00006EEBE9
:104310000101B1F5801F1BD3B1F5001F0CD3490873
:104320005FEA30004FEA3C0C04F101044FEA4452CA
:1043300012F5800F80F09A80BCF1004F08BF5FEA51
:10434000500C50F1000041EB045141EA050130BD31
:104350005FEA4C0C404141EB010111F4801FA4F1D4
:104360000104E9D191F0000F04BF01460020B1FA29
:1043700081F308BF2033A3F10B03B3F120020CDA61
:104380000C3208DD02F1140CC2F10C0201FA0CF03F
:1043900021FA02F10CE002F11402D8BFC2F1200CA4
:1043A00001FA02F120FA0CFCDCBF41EA0C0190405A
:1043B000E41AA2BF01EB0451294330BD6FEA0404A3
:1043C0001F3C1CDA0C340EDC04F11404C4F120028E
:1043D00020FA04F001FA02F340EA030021FA04F3A0
:1043E00045EA030130BDC4F10C04C4F1200220FAF7
:1043F00002F001FA04F340EA0300294630BD21FA35
:1044000004F0294630BD94F0000F83F4801306BFFA
:1044100081F480110134013D4EE77FEA645C18BFEE
:104420007FEA655C29D094EA050F08BF90EA020F85
:1044300005D054EA000C04BF1946104630BD91EA7D
:10444000030F1EBF0021002030BD5FEA545C05D180
:104450004000494128BF41F0004130BD14F58004BF
:104460003CBF01F5801130BD01F0004545F0FE4133
:1044700041F470014FF0000030BD7FEA645C1ABF68
:10448000194610467FEA655C1CBF0B46024650EA9F
:10449000013406BF52EA033591EA030F41F40021CB
:1044A00030BD00BF90F0000F04BF0021704730B551
:1044B0004FF4806404F132044FF000054FF0000126
:1044C00050E700BF90F0000F04BF0021704730B5E7
:1044D0004FF4806404F1320410F0004548BF4042BC
:1044E0004FF000013EE700BF42004FEAE2014FEA11
:1044F00031014FEA02701FBF12F07F4393F07F4FEC
:1045000081F06051704792F0000F14BF93F07F4F1D
:10451000704730B54FF4607401F0004521F0004160
:1045200020E700BF50EA010208BF704730B54FF0E6
:1045300000050AE050EA010208BF704730B511F0EB
:10454000004502D5404261EB41014FF4806404F123
:1045500032045FEA915C3FF4DCAE4FF003025FEAA5
:10456000DC0C18BF03325FEADC0C18BF033202EB2D
:10457000DC02C2F1200300FA03FC20FA02F001FA87
:1045800003FE40EA0E0021FA02F11444C1E600BF26
:1045900070B54FF0FF0C4CF4E06C1CEA11541DBFD9
:1045A0001CEA135594EA0C0F95EA0C0F00F0DEF8A4
:1045B0002C4481EA030621EA4C5123EA4C5350EA89
:1045C000013518BF52EA033541F4801143F48013DA
:1045D00038D0A0FB02CE4FF00005E1FB02E506F06B
:1045E0000042E0FB03E54FF00006E1FB03569CF0C0
:1045F000000F18BF4EF0010EA4F1FF04B6F5007FC6
:1046000064F5407404D25FEA4E0E6D4146EB060637
:1046100042EAC62141EA55514FEAC52040EA5E50C0
:104620004FEACE2EB4F1FD0C88BFBCF5E06F1ED86A
:10463000BEF1004F08BF5FEA500E50F1000041EBA1
:10464000045170BD06F0004646EA010140EA02004E
:1046500081EA0301B4EB5C04C2BFD4EB0C0541EA70
:10466000045170BD41F480114FF0000E013C00F385
:10467000AB8014F1360FDEBF002001F0004170BDA9
:10468000C4F10004203C35DA0C341BDC04F11404C2
:10469000C4F1200500FA05F320FA04F001FA05F24E
:1046A00040EA020001F0004221F0004110EBD3701B
:1046B00021FA04F642EB06015EEA430E08BF20EA47
:1046C000D37070BDC4F10C04C4F1200500FA04F3EA
:1046D00020FA05F001FA04F240EA020001F000417C
:1046E00010EBD37041F100015EEA430E08BF20EAEF
:1046F000D37070BDC4F1200500FA05F24EEA020E37
:1047000020FA04F301FA05F243EA020321FA04F065
:1047100001F0004121FA04F220EA020000EBD3701C
:104720005EEA430E08BF20EAD37070BD94F0000F1C
:104730000FD101F00046400041EB010111F4801F50
:1047400008BF013CF7D041EA060195F0000F18BF01
:10475000704703F00046520043EB030313F4801F3D
:1047600008BF013DF7D043EA0603704794EA0C0FF7
:104770000CEA135518BF95EA0C0F0CD050EA41060D
:1047800018BF52EA4306D1D181EA030101F000418A
:104790004FF0000070BD50EA410606BF10461946B2
:1047A00052EA430619D094EA0C0F02D150EA0136BE
:1047B00013D195EA0C0F05D152EA03361CBF1046FF
:1047C00019460AD181EA030101F0004141F0FE419E
:1047D00041F470014FF0000070BD41F0FE4141F422
:1047E000780170BD70B54FF0FF0C4CF4E06C1CEA22
:1047F00011541DBF1CEA135594EA0C0F95EA0C0FD7
:1048000000F0A7F8A4EB050481EA030E52EA033591
:104810004FEA013100F088804FEA03334FF08055B2
:1048200045EA131343EA12634FEA022245EA1115DF
:1048300045EA10654FEA00260EF000419D4208BF90
:10484000964244F1FD0404F5407402D25B084FEA3D
:104850003202B61A65EB03055B084FEA32024FF4E9
:1048600080104FF4002CB6EB020E75EB030E22BF46
:10487000B61A754640EA0C005B084FEA3202B6EB06
:10488000020E75EB030E22BFB61A754640EA5C00B5
:104890005B084FEA3202B6EB020E75EB030E22BF45
:1048A000B61A754640EA9C005B084FEA3202B6EB46
:1048B000020E75EB030E22BFB61A754640EADC0005
:1048C00055EA060E18D04FEA051545EA16754FEA67
:1048D00006164FEAC30343EA52734FEAC2025FEA85
:1048E0001C1CC0D111F4801F0BD141EA00014FF014
:1048F00000004FF0004CB6E711F4801F04BF0143E5
:104900000020B4F1FD0C88BFBCF5E06F3FF6AFAE00
:10491000B5EB030C04BFB6EB020C5FEA500C50F190
:10492000000041EB045170BD0EF0004E4EEA113113
:1049300014EB5C04C2BFD4EB0C0541EA045170BD1A
:1049400041F480114FF0000E013C90E645EA060E5E
:104950008DE60CEA135594EA0C0F08BF95EA0C0F8C
:104960003FF43BAF94EA0C0F0AD150EA01347FF4D4
:1049700034AF95EA0C0F7FF425AF104619462CE7AB
:1049800095EA0C0F06D152EA03353FF4FDAE10460E
:10499000194622E750EA410618BF52EA43067FF45F
:1049A000C5AE50EA41047FF40DAF52EA43057FF4EF
:1049B000EBAE12E74FEA410212F5001215D211D503
:1049C0006FF47873B3EB625212D94FEAC12343F00C
:1049D000004343EA505311F0004F23FA02F018BF8E
:1049E000404270474FF00000704750EA013005D157
:1049F00011F0004008BF6FF0004070474FF000001A
:104A0000704700BF4FEA4102B2F1E04324BFB3F563
:104A1000001CDCF1FE5C0DD901F0004C4FEAC00235
:104A20004CEA5070B2F1004F40EB830008BF20F019
:104A30000100704711F0804F21D113F13872BCBFD3
:104A400001F00040704741F480114FEA5252C2F128
:104A50001802C2F1200C10FA0CF320FA02F018BF71
:104A600040F001004FEAC1234FEAD32303FA0CFCC4
:104A700040EA0C0023FA02F34FEA4303CCE77FEA53
:104A8000625307D150EA01331EBF4FF0FE4040F49D
:104A90004000704701F0004040F0FE4040F400004C
:104AA000704700BF80F0004002E000BF81F000418D
:104AB00042001FBF5FEA410392EA030F7FEA226CC4
:104AC0007FEA236C6AD04FEA1262D2EB1363C1BF54
:104AD000D218414048404140B8BF5B42192B88BFC3
:104AE000704710F0004F40F4000020F07F4018BFE6
:104AF000404211F0004F41F4000121F07F4118BF06
:104B0000494292EA030F3FD0A2F1010241FA03FCAD
:104B100010EB0C00C3F1200301FA03F100F0004395
:104B200002D5494260EB4000B0F5000F13D3B0F15D
:104B3000807F06D340084FEA310102F10102FE2ACC
:104B400051D2B1F1004F40EBC25008BF20F001003C
:104B500040EA03007047490040EB000010F4000FEA
:104B6000A2F10102EDD1B0FA80FCACF1080CB2EB7D
:104B70000C0200FA0CF0AABF00EBC25052421843DC
:104B8000BCBFD0401843704792F0000F81F4000181
:104B900006BF80F400000132013BB5E74FEA410354
:104BA0007FEA226C18BF7FEA236C21D092EA030FC0
:104BB00004D092F0000F08BF0846704790EA010F3A
:104BC0001CBF0020704712F07F4F04D1400028BF67
:104BD00040F00040704712F100723CBF00F5000049
:104BE000704700F0004343F0FE4040F4000070477F
:104BF0007FEA226216BF08467FEA2363014642022B
:104C000006BF5FEA412390EA010F40F4800070473D
:104C10004FF0000304E000BF10F0004348BF4042E3
:104C20005FEA000C08BF704743F0964301464FF01F
:104C300000001CE050EA010208BF70474FF000037B
:104C40000AE000BF50EA010208BF704711F00043BC
:104C500002D5404261EB41015FEA010C02BF84468C
:104C60000146002043F0B64308BFA3F18053A3F5EB
:104C70000003BCFA8CF2083AA3EBC25310DB01FA32
:104C800002FC634400FA02FCC2F12002BCF1004FB6
:104C900020FA02F243EB020008BF20F00100704747
:104CA00002F1200201FA02FCC2F1200250EA4C009B
:104CB00021FA02F243EB020008BF20EADC707047E1
:104CC0004FF0FF0C1CEAD0521EBF1CEAD15392EAEF
:104CD0000C0F93EA0C0F6FD01A4480EA010C4002CB
:104CE00018BF5FEA41211ED04FF0006343EA501025
:104CF00043EA5111A0FB01310CF00040B1F5000F67
:104D00003EBF490041EAD3715B0040EA010062F115
:104D10007F02FD2A1DD8B3F1004F40EBC25008BFFF
:104D200020F00100704790F0000F0CF0004C08BF1D
:104D300049024CEA502040EA51207F3AC2BFD2F1EA
:104D4000FF0340EAC250704740F400004FF00003F8
:104D5000013A5DDC12F1190FDCBF00F00040704732
:104D6000C2F10002410021FA02F1C2F1200200FA70
:104D700002FC5FEA310040F1000053EA4C0308BF37
:104D800020EADC70704792F0000F00F0004C02BF88
:104D9000400010F4000F013AF9D040EA0C0093F003
:104DA000000F01F0004C02BF490011F4000F013B5D
:104DB000F9D041EA0C018FE70CEAD15392EA0C0FCB
:104DC00018BF93EA0C0F0AD030F0004C18BF31F036
:104DD000004CD8D180EA010000F00040704790F00C
:104DE000000F17BF90F0004F084691F0000F91F0B0
:104DF000004F14D092EA0C0F01D142020FD193EA76
:104E00000C0F03D14B0218BF084608D180EA0100FD
:104E100000F0004040F0FE4040F40000704740F0D9
:104E2000FE4040F4400070474FF0FF0C1CEAD052A7
:104E30001EBF1CEAD15392EA0C0F93EA0C0F69D003
:104E4000A2EB030280EA010C49024FEA402037D06E
:104E50004FF0805343EA111143EA10130CF0004065
:104E60008B4238BF5B0042F17D024FF4000C8B4255
:104E700024BF5B1A40EA0C00B3EB510F24BFA3EB35
:104E8000510340EA5C00B3EB910F24BFA3EB910305
:104E900040EA9C00B3EBD10F24BFA3EBD10340EA5F
:104EA000DC001B0118BF5FEA1C1CE0D1FD2A3FF6A5
:104EB00050AF8B4240EBC25008BF20F0010070475A
:104EC0000CF0004C4CEA50207F32C2BFD2F1FF03FD
:104ED00040EAC250704740F400004FF00003013A2E
:104EE00037E792F0000F00F0004C02BF400010F4D2
:104EF000000F013AF9D040EA0C0093F0000F01F0E6
:104F0000004C02BF490011F4000F013BF9D041EA07
:104F10000C0195E70CEAD15392EA0C0F08D142023A
:104F20007FF47DAF93EA0C0F7FF470AF084676E70D
:104F300093EA0C0F04D14B023FF44CAF08466EE7E6
:104F400030F0004C18BF31F0004CCAD130F00042B4
:104F50007FF45CAF31F000437FF43CAF5FE700BF0C
:104F60004FF0FF3C06E000BF4FF0010C02E000BF35
:104F70004FF0010C4DF804CD4FEA40024FEA4103D7
:104F80007FEA226C18BF7FEA236C11D001B052EA8D
:104F9000530C18BF90EA010F58BFB2EB030088BF53
:104FA000C81738BF6FEAE17018BF40F001007047C2
:104FB0007FEA226C02D15FEA402C05D17FEA236CA4
:104FC000E4D15FEA412CE1D05DF8040B704700BFEB
:104FD000844608466146FFE70FB5FFF7C9FF002882
:104FE00048BF10F1000F0FBD4DF808EDFFF7F4FFBB
:104FF0000CBF012000205DF808FB00BF4DF808ED54
:10500000FFF7EAFF34BF012000205DF808FB00BF76
:105010004DF808EDFFF7E0FF94BF012000205DF898
:1050200008FB00BF4DF808EDFFF7D2FF94BF012049
:1050300000205DF808FB00BF4DF808EDFFF7C8FF42
:1050400034BF012000205DF808FB00BF4FEA40029A
:10505000B2F1FE4F0FD34FF09E03B3EB12620DD9A6
:105060004FEA002343F0004310F0004F23FA02F010
:1050700018BF404270474FF00000704712F1610FB7
:1050800001D1420205D110F0004008BF6FF000408E
:1050900070474FF000007047094B70B51C6806461A
:1050A000256C3DB91A20FDF777F91A2220642946AC
:1050B00000F03FF9216C3046BDE8704000F002B8C6
:1050C000E400002010B50C46416986B001F26C7115
:1050D000036982690491016803EB4303039141680A
:1050E00002EB4202029181680191C1682046009161
:1050F00004490B4404490A440449FDF765F9204674
:1051000006B010BD9A64080885640808BE640808E3
:1051100010B5054C13462CB10A4601460220AFF3E8
:10512000008010BD204610BD0000000038B5074BC0
:1051300005461C68E36B1BB92420FDF72DF9E063DD
:10514000E16B2846BDE8384000F002B8E4000020DA
:105150002DE9F0410C46804600F002FD214607464D
:10516000404600F001FD4669044606F26C76B3073E
:1051700005D1642296FBF2F302FB13634BB94FF4A3
:10518000C87596FBF5F305FB1365B5FA85F35B0966
:1051900000E001235F4A302505FB032500F014FBE6
:1051A00000F014FB5C4B1B68F3B17B689E4205D199
:1051B0003968D8F80030FA6941B90AE0304600F0A1
:1051C0005BFA0028F4D14FF0FF330DE0934208DB87
:1051D00001E0934207DABA6B9342ACBF002301238C
:1051E00002E0002300E001232362236A3C20012B1C
:1051F0000CBFF96B396A4FF4616391FBF3F603FB63
:10520000161393FBF0F200FB123061682368891AD1
:10521000A2681B1A921B3B2B23606160A26003DD16
:10522000013161603C3B04E0002B03DA013961602D
:105230003C33236063683B2B03DD0132A2603C3BBF
:1052400004E0002B03DA013AA2603C336360A368F8
:10525000172B22DDE269183B0132E261A269A360EB
:105260000132062AC8BF0022A261E2682369013226
:10527000E26055F823108A4246DD01330C2B08BF4B
:105280006369A2EB0102E26005BF013300222361E2
:10529000226104BF6361E26136E0002B34DAE26927
:1052A0001833013AE261A269A360013A48BF0622BD
:1052B000A261E268013AE26032BB2369013B01D49A
:1052C00023611DE00B23236163695A1E12F0030F53
:1052D000626103F26B7305D1642193FBF1F201FB70
:1052E00012324AB94FF4C87193FBF1F201FB123349
:1052F000B3FA83F35B0900E0012303F5B673E361BE
:10530000236955F82330E36000F05FFA2046BDE8DA
:10531000F08100BF40660808A009002010B5431EB8
:105320000A44914204D011F8014B03F8014FF8E709
:1053300010BD03460244934202D003F8011BFAE772
:105340007047000038B5124B05461C68A36BD3B9F3
:105350001820FDF721F843F20E33A06303804AF6CC
:10536000CD33438041F2342383804EF26D63C3809A
:105370004DF6EC630381052343810B2383810122D6
:105380000023C0E90423A36B00221D615A6138BDCC
:10539000E4000020024610B513461C780132002CB0
:1053A000FAD1013B11F8012B03F8012F002AF9D1A2
:1053B00010BD10F8012B11F8013B012A28BF9A42B9
:1053C000F7D0D01A7047034611F8012B03F8012BD0
:1053D000002AF9D170470000024B0146186800F01E
:1053E00003B800BFE400002070B5064608460C462E
:1053F00000F00DF8451C29463046FDF705F8064635
:1054000018B12A462146FFF789FF304670BD034692
:1054100013F8012B002AFBD1181A0138704730B558
:1054200082B1451E013915F8013F11F8014FA34221
:1054300006D1EC431444E04201D0002BF3D11C46CA
:10544000181B30BD104630BD2DE9F0470F46804691
:105450003F48D0F800903D4615F8014B09EB040099
:10546000407800F0080000F0FF0608B12F46F2E790
:105470002D2C03D1BD1C7C78012603E02B2C04BF0E
:105480007C78BD1C13B1102B0AD15BE0302C57D1B6
:10549000287800F0DF0058284DD16C7810230235B1
:1054A000002E14BF4FF0004C6FF0004CBCFBF3FA21
:1054B0000027384603FB1ACC09EB040E9EF801E0E6
:1054C0001EF0040F01D0303C0BE01EF0030E1BD089
:1054D000BEF1010F0CBF4FF0370E4FF0570ECEEB61
:1054E0000404A34210DDB7F1FF3F0AD0504506D8AF
:1054F00001D1644503DC03FB0040012701E04FF0CC
:10550000FF3715F8014BD7E77B1C0CD1002E4FF06D
:10551000220314BF4FF000406FF00040C8F8003085
:105520002AB9BDE8F08706B1404272B107B1691EE1
:105530001160BDE8F0873024002BB1D10823AFE71C
:105540000A23ADE7302CA3D0AAE7BDE8F08700BF5F
:105550008000002013460A46014602480068FFF713
:1055600073BF00BFE40000202DE9F0470E468046DF
:105570003B48D0F80090354615F8014B09EB040084
:10558000407800F0080000F0FF0708B12E46F2E76F
:105590002D2C03D1B51C7478012703E02B2C04BFFC
:1055A0007478B51C13B1102B0AD153E0302C4FD1B5
:1055B000287800F0DF00582845D16C781023023598
:1055C0004FF0FF3CBCFBF3FC03FB0CFA00266FEA38
:1055D0000A0A304609EB040E9EF801E01EF0040FA3
:1055E00001D0303C0BE01EF0030E1AD0BEF1010FCB
:1055F0000CBF4FF0370E4FF0570ECEEB0404A34212
:105600000FDD002E08DB604506D801D1544503DCD0
:1056100003FB0040012601E04FF0FF3615F8014B77
:10562000D8E7002E07DA2223C8F800304FF0FF3009
:105630002AB9BDE8F08707B1404272B106B1691ED0
:105640001160BDE8F0873024002BB9D10823B7E7FB
:105650000A23B5E7302CABD0B2E7BDE8F08700BF36
:105660008000002013460A46014602480068FFF702
:105670007BBF00BFE40000202DE9F74F044600F097
:105680006FFA40F2B1739C4240F3968040F26D1580
:105690006FF4F663E318A4F2B2729B1005FB0235B7
:1056A000A4F26D726FF0630392FBF3F36FF4C862C0
:1056B0002B44A5184FF4C87294FBF2F795FBF2F552
:1056C00002FB17471D44642394FBF3F6B7FA87FEE9
:1056D000014603FB164600F13803019304F003036F
:1056E00044604FEA5E1E00934FF0070C0B7A4A2B82
:1056F0000ED14B69009AEC1802B906B927B93B2BB9
:10570000D4BF0023012300E000232344013B3FE0FA
:10571000442B02D14B692B443AE0009B2BB9002E5D
:105720000CBFF0464FF0010800E0F046A946244BBC
:10573000302202FB0838CC68A8F1040A0123A342F6
:1057400004DA5AF804BF0133D944F8E709F1040335
:1057500093FBFCFBCBEBCB0ACAEB030A4B69012C96
:10576000B8BF0124B3EB0A0A0B6904F1804403F1CA
:10577000FF3304F1FF3448BF0AF1070AC3EBC30348
:1057800058F824405344A34201DB073BFBE74B445A
:105790008C690C4A02FB03430C6A234441F81C3F0A
:1057A000019B9942A2D1C369826B9342ACBF002393
:1057B00001230360012000E0002003B0BDE8F08F6A
:1057C000406608088051010070477047014B186817
:1057D00000F002B8E40000202DE9F04F8DB007463C
:1057E00000F0BEF9B0490446384600F0B1F9AF4EBA
:1057F000054660B9AE4BAF4A1860AF4B1860AF4B6F
:1058000030681A605A60FCF7CFFD356048E13168B6
:1058100079B93068FCF7C8FD2846FFF7F8FD411C50
:105820003846FCF7F1FD306048B12946FFF7CBFD63
:1058300005E0FFF7BEFD002800F03281E9E72B7894
:105840000AAE3A2B08BF013533469D4A9D4928468A
:10585000FCF7C2FD002840F323810A9BEF18EB5CA4
:105860002D2B03D101374FF0FF3503E02B2B08BF61
:10587000013701250DF1200A0DF11E0B4FF0000834
:105880000396CDF808A00196CDF800B0334607AADC
:105890008D493846ADF81E80ADF82080FCF79CFDA0
:1058A000404540F3FD80BDF81E20BDF820303C216E
:1058B00001FB0233BDF81C204FF4616101FB023390
:1058C0005D437F4B25627D4DDFF808922B600A9B7C
:1058D0004A461F447B4933463846FCF77DFD404528
:1058E00008DC2B68226A6B60714B1A60724BC3F83C
:1058F0000080D5E00A9BC5F80490FD18FB5C2D2BB9
:1059000003D101354FF0FF3703E02B2B08BF0135E2
:1059100001270023ADF81C30ADF81E30ADF8203063
:105920000A930396CDF808A00196CDF800B033464F
:1059300007AA65492846FCF74FFD002804DC236AC6
:10594000A3F56163E3630EE0BDF81E20BDF82030CF
:105950003C2101FB0233BDF81C204FF4616101FBC7
:1059600002335F43E76327460A9B4FF000091D445B
:105970002B782C2B08BF013595F80080B8F14D0F1E
:1059800026D10DF12603029309AB009303960196ED
:1059900033460DF122024D492846FCF71DFD032830
:1059A0007ED1BDF822104B1E0B2B79D8BDF82420D8
:1059B000531E042B74D8BDF82630062B70D887F8F8
:1059C0000880F9603A617B610A9B05EB03082AE0D5
:1059D000B8F14A0F06BF4346013544230A220BA9FA
:1059E00028460593FFF73EFEDDF82C80ADF8260033
:1059F0004545059B14D14D23B9F1000F07D1237202
:105A00000323E36002232361C4F814900BE084F8BD
:105A100024300B23A3620123E3620023236302E00B
:105A200080B23B7278610223ADF81C300023ADF8E0
:105A30001E30ADF820300A9398F800302F2B0BD190
:105A40000396CDF808A00196CDF800B0334607AA1A
:105A50001F494046FCF7C0FCBDF81E20BDF82030B1
:105A60003C2101FB0233BDF81C204FF4616101FBB6
:105A70000233BB610A9D09F10109B9F1020F4544E6
:105A800007F11C077FF474AF6068FFF7F5FD226A29
:105A9000074B1A60E36B9B1A074A18BF0123136078
:105AA0000DB0BDE8F08F00BFA06608089C0900207B
:105AB000A4090020A3660808A0090020E80000202F
:105AC0008F090020A7660808CA660808B666080895
:105AD000C9660808840900202DE9F84F07468B465F
